{
  "address": "0x8290869AF307f1E61a912F071B2Cfc93197e71EA",
  "abi": [
    {
      "inputs": [
        {
          "internalType": "address",
          "name": "_lyra_eth",
          "type": "address"
        },
        {
          "internalType": "address",
          "name": "_lyra_btc",
          "type": "address"
        },
        {
          "internalType": "address",
          "name": "_operationalTreasury",
          "type": "address"
        },
        {
          "internalType": "address",
          "name": "_lyra_ethErc721",
          "type": "address"
        },
        {
          "internalType": "address",
          "name": "_lyra_btcErc721",
          "type": "address"
        },
        {
          "internalType": "address",
          "name": "_hegicErc721",
          "type": "address"
        },
        {
          "internalType": "address",
          "name": "_usdc",
          "type": "address"
        }
      ],
      "stateMutability": "nonpayable",
      "type": "constructor"
    },
    {
      "anonymous": false,
      "inputs": [
        {
          "indexed": false,
          "internalType": "uint256",
          "name": "buildID",
          "type": "uint256"
        },
        {
          "indexed": true,
          "internalType": "address",
          "name": "user",
          "type": "address"
        },
        {
          "indexed": false,
          "internalType": "uint256",
          "name": "productType",
          "type": "uint256"
        }
      ],
      "name": "CreateBuild",
      "type": "event"
    },
    {
      "anonymous": false,
      "inputs": [
        {
          "indexed": true,
          "internalType": "uint256",
          "name": "buildID",
          "type": "uint256"
        },
        {
          "indexed": false,
          "internalType": "uint256",
          "name": "tokenID",
          "type": "uint256"
        },
        {
          "indexed": false,
          "internalType": "address",
          "name": "strategy",
          "type": "address"
        },
        {
          "indexed": false,
          "internalType": "address",
          "name": "holder",
          "type": "address"
        },
        {
          "indexed": false,
          "internalType": "uint256",
          "name": "amount",
          "type": "uint256"
        },
        {
          "indexed": false,
          "internalType": "uint256",
          "name": "period",
          "type": "uint256"
        }
      ],
      "name": "OpenPositionByHegic",
      "type": "event"
    },
    {
      "anonymous": false,
      "inputs": [
        {
          "indexed": true,
          "internalType": "uint256",
          "name": "buildID",
          "type": "uint256"
        },
        {
          "indexed": false,
          "internalType": "uint256",
          "name": "strikeId",
          "type": "uint256"
        },
        {
          "indexed": false,
          "internalType": "uint256",
          "name": "positionId",
          "type": "uint256"
        },
        {
          "indexed": false,
          "internalType": "uint256",
          "name": "iterations",
          "type": "uint256"
        },
        {
          "indexed": false,
          "internalType": "enum ILyra.OptionType",
          "name": "optionType",
          "type": "uint8"
        },
        {
          "indexed": false,
          "internalType": "uint256",
          "name": "amount",
          "type": "uint256"
        },
        {
          "indexed": false,
          "internalType": "uint256",
          "name": "setCollateralTo",
          "type": "uint256"
        },
        {
          "indexed": false,
          "internalType": "uint256",
          "name": "minTotalCost",
          "type": "uint256"
        },
        {
          "indexed": false,
          "internalType": "uint256",
          "name": "maxTotalCost",
          "type": "uint256"
        },
        {
          "indexed": false,
          "internalType": "address",
          "name": "referrer",
          "type": "address"
        },
        {
          "indexed": false,
          "internalType": "uint256",
          "name": "tokenID",
          "type": "uint256"
        }
      ],
      "name": "OpenPositionByLyra",
      "type": "event"
    },
    {
      "anonymous": false,
      "inputs": [
        {
          "indexed": true,
          "internalType": "address",
          "name": "previousOwner",
          "type": "address"
        },
        {
          "indexed": true,
          "internalType": "address",
          "name": "newOwner",
          "type": "address"
        }
      ],
      "name": "OwnershipTransferred",
      "type": "event"
    },
    {
      "inputs": [],
      "name": "allApprove",
      "outputs": [],
      "stateMutability": "nonpayable",
      "type": "function"
    },
    {
      "inputs": [
        {
          "internalType": "enum BaseOptionBuilder.ProtocolType[]",
          "name": "protocolsArrays",
          "type": "uint8[]"
        },
        {
          "internalType": "bytes[]",
          "name": "parametersArray",
          "type": "bytes[]"
        },
        {
          "internalType": "uint256",
          "name": "productType",
          "type": "uint256"
        }
      ],
      "name": "consolidationOfTransactions",
      "outputs": [],
      "stateMutability": "nonpayable",
      "type": "function"
    },
    {
      "inputs": [
        {
          "internalType": "bytes",
          "name": "paramData",
          "type": "bytes"
        }
      ],
      "name": "decodeFromHegic",
      "outputs": [
        {
          "internalType": "contract IHegicStrategy",
          "name": "strategy",
          "type": "address"
        },
        {
          "internalType": "address",
          "name": "holder",
          "type": "address"
        },
        {
          "internalType": "uint256",
          "name": "amount",
          "type": "uint256"
        },
        {
          "internalType": "uint256",
          "name": "period",
          "type": "uint256"
        },
        {
          "internalType": "bytes[]",
          "name": "additional",
          "type": "bytes[]"
        }
      ],
      "stateMutability": "pure",
      "type": "function"
    },
    {
      "inputs": [
        {
          "internalType": "bytes",
          "name": "paramData",
          "type": "bytes"
        }
      ],
      "name": "decodeFromLyra",
      "outputs": [
        {
          "components": [
            {
              "internalType": "uint256",
              "name": "strikeId",
              "type": "uint256"
            },
            {
              "internalType": "uint256",
              "name": "positionId",
              "type": "uint256"
            },
            {
              "internalType": "uint256",
              "name": "iterations",
              "type": "uint256"
            },
            {
              "internalType": "enum ILyra.OptionType",
              "name": "optionType",
              "type": "uint8"
            },
            {
              "internalType": "uint256",
              "name": "amount",
              "type": "uint256"
            },
            {
              "internalType": "uint256",
              "name": "setCollateralTo",
              "type": "uint256"
            },
            {
              "internalType": "uint256",
              "name": "minTotalCost",
              "type": "uint256"
            },
            {
              "internalType": "uint256",
              "name": "maxTotalCost",
              "type": "uint256"
            },
            {
              "internalType": "address",
              "name": "referrer",
              "type": "address"
            }
          ],
          "internalType": "struct ILyra.TradeInputParameters",
          "name": "params",
          "type": "tuple"
        }
      ],
      "stateMutability": "pure",
      "type": "function"
    },
    {
      "inputs": [
        {
          "internalType": "contract IHegicStrategy",
          "name": "strategy",
          "type": "address"
        },
        {
          "internalType": "address",
          "name": "holder",
          "type": "address"
        },
        {
          "internalType": "uint256",
          "name": "amount",
          "type": "uint256"
        },
        {
          "internalType": "uint256",
          "name": "period",
          "type": "uint256"
        },
        {
          "internalType": "bytes[]",
          "name": "additional",
          "type": "bytes[]"
        }
      ],
      "name": "encodeFromHegic",
      "outputs": [
        {
          "internalType": "bytes",
          "name": "paramData",
          "type": "bytes"
        }
      ],
      "stateMutability": "pure",
      "type": "function"
    },
    {
      "inputs": [
        {
          "components": [
            {
              "internalType": "uint256",
              "name": "strikeId",
              "type": "uint256"
            },
            {
              "internalType": "uint256",
              "name": "positionId",
              "type": "uint256"
            },
            {
              "internalType": "uint256",
              "name": "iterations",
              "type": "uint256"
            },
            {
              "internalType": "enum ILyra.OptionType",
              "name": "optionType",
              "type": "uint8"
            },
            {
              "internalType": "uint256",
              "name": "amount",
              "type": "uint256"
            },
            {
              "internalType": "uint256",
              "name": "setCollateralTo",
              "type": "uint256"
            },
            {
              "internalType": "uint256",
              "name": "minTotalCost",
              "type": "uint256"
            },
            {
              "internalType": "uint256",
              "name": "maxTotalCost",
              "type": "uint256"
            },
            {
              "internalType": "address",
              "name": "referrer",
              "type": "address"
            }
          ],
          "internalType": "struct ILyra.TradeInputParameters",
          "name": "params",
          "type": "tuple"
        }
      ],
      "name": "encodeFromLyra",
      "outputs": [
        {
          "internalType": "bytes",
          "name": "paramData",
          "type": "bytes"
        }
      ],
      "stateMutability": "pure",
      "type": "function"
    },
    {
      "inputs": [],
      "name": "hegicErc721",
      "outputs": [
        {
          "internalType": "address",
          "name": "",
          "type": "address"
        }
      ],
      "stateMutability": "view",
      "type": "function"
    },
    {
      "inputs": [],
      "name": "lyra_btc",
      "outputs": [
        {
          "internalType": "address",
          "name": "",
          "type": "address"
        }
      ],
      "stateMutability": "view",
      "type": "function"
    },
    {
      "inputs": [],
      "name": "lyra_btcErc721",
      "outputs": [
        {
          "internalType": "address",
          "name": "",
          "type": "address"
        }
      ],
      "stateMutability": "view",
      "type": "function"
    },
    {
      "inputs": [],
      "name": "lyra_eth",
      "outputs": [
        {
          "internalType": "address",
          "name": "",
          "type": "address"
        }
      ],
      "stateMutability": "view",
      "type": "function"
    },
    {
      "inputs": [],
      "name": "lyra_ethErc721",
      "outputs": [
        {
          "internalType": "address",
          "name": "",
          "type": "address"
        }
      ],
      "stateMutability": "view",
      "type": "function"
    },
    {
      "inputs": [],
      "name": "nextBuildID",
      "outputs": [
        {
          "internalType": "uint256",
          "name": "",
          "type": "uint256"
        }
      ],
      "stateMutability": "view",
      "type": "function"
    },
    {
      "inputs": [
        {
          "internalType": "address",
          "name": "",
          "type": "address"
        },
        {
          "internalType": "address",
          "name": "",
          "type": "address"
        },
        {
          "internalType": "uint256",
          "name": "",
          "type": "uint256"
        },
        {
          "internalType": "bytes",
          "name": "",
          "type": "bytes"
        }
      ],
      "name": "onERC721Received",
      "outputs": [
        {
          "internalType": "bytes4",
          "name": "",
          "type": "bytes4"
        }
      ],
      "stateMutability": "nonpayable",
      "type": "function"
    },
    {
      "inputs": [],
      "name": "operationalTreasury",
      "outputs": [
        {
          "internalType": "address",
          "name": "",
          "type": "address"
        }
      ],
      "stateMutability": "view",
      "type": "function"
    },
    {
      "inputs": [],
      "name": "owner",
      "outputs": [
        {
          "internalType": "address",
          "name": "",
          "type": "address"
        }
      ],
      "stateMutability": "view",
      "type": "function"
    },
    {
      "inputs": [],
      "name": "renounceOwnership",
      "outputs": [],
      "stateMutability": "nonpayable",
      "type": "function"
    },
    {
      "inputs": [
        {
          "internalType": "address",
          "name": "newOwner",
          "type": "address"
        }
      ],
      "name": "transferOwnership",
      "outputs": [],
      "stateMutability": "nonpayable",
      "type": "function"
    },
    {
      "inputs": [],
      "name": "usdc",
      "outputs": [
        {
          "internalType": "address",
          "name": "",
          "type": "address"
        }
      ],
      "stateMutability": "view",
      "type": "function"
    }
  ],
  "transactionHash": "0x786296a336bbcf4cffb3aeb74199f21d94d33b2ece843ee99cfbdd56f32a2686",
  "args": [
    "0x919E5e0C096002cb8a21397D724C4e3EbE77bC15",
    "0xe044919cf58dFb066FC9DE7c69C7db19f336B20c",
    "0xec096ea6eB9aa5ea689b0CF00882366E92377371",
    "0xe485155ce647157624C5E2A41db45A9CC88098c3",
    "0x0e97498F3d91756Ec7F2d244aC97F6Ea9f4eBbC3",
    "0x5Fe380D68fEe022d8acd42dc4D36FbfB249a76d5",
    "0xFF970A61A04b1cA14834A43f5dE4533eBDDB5CC8"
  ],
  "numDeployments": 1,
  "solcInputHash": "5f98164c6a5774237a104070b06a4061",
  "bytecode": "0x608060405260016008553480156200001657600080fd5b5060405162003d3138038062003d3183398181016040528101906200003c919062000374565b8686868686868662000063620000576200023e60201b60201c565b6200024660201b60201c565b86600160006101000a81548173ffffffffffffffffffffffffffffffffffffffff021916908373ffffffffffffffffffffffffffffffffffffffff16021790555085600260006101000a81548173ffffffffffffffffffffffffffffffffffffffff021916908373ffffffffffffffffffffffffffffffffffffffff16021790555084600360006101000a81548173ffffffffffffffffffffffffffffffffffffffff021916908373ffffffffffffffffffffffffffffffffffffffff16021790555083600460006101000a81548173ffffffffffffffffffffffffffffffffffffffff021916908373ffffffffffffffffffffffffffffffffffffffff16021790555082600560006101000a81548173ffffffffffffffffffffffffffffffffffffffff021916908373ffffffffffffffffffffffffffffffffffffffff16021790555081600660006101000a81548173ffffffffffffffffffffffffffffffffffffffff021916908373ffffffffffffffffffffffffffffffffffffffff16021790555080600760006101000a81548173ffffffffffffffffffffffffffffffffffffffff021916908373ffffffffffffffffffffffffffffffffffffffff160217905550505050505050505050505050505062000427565b600033905090565b60008060009054906101000a900473ffffffffffffffffffffffffffffffffffffffff169050816000806101000a81548173ffffffffffffffffffffffffffffffffffffffff021916908373ffffffffffffffffffffffffffffffffffffffff1602179055508173ffffffffffffffffffffffffffffffffffffffff168173ffffffffffffffffffffffffffffffffffffffff167f8be0079c531659141344cd1fd0a4f28419497f9722a3daafe3b4186f6b6457e060405160405180910390a35050565b600080fd5b600073ffffffffffffffffffffffffffffffffffffffff82169050919050565b60006200033c826200030f565b9050919050565b6200034e816200032f565b81146200035a57600080fd5b50565b6000815190506200036e8162000343565b92915050565b600080600080600080600060e0888a0312156200039657620003956200030a565b5b6000620003a68a828b016200035d565b9750506020620003b98a828b016200035d565b9650506040620003cc8a828b016200035d565b9550506060620003df8a828b016200035d565b9450506080620003f28a828b016200035d565b93505060a0620004058a828b016200035d565b92505060c0620004188a828b016200035d565b91505092959891949750929550565b6138fa80620004376000396000f3fe608060405234801561001057600080fd5b50600436106101165760003560e01c8063989b290c116100a2578063d66aafa611610071578063d66aafa6146102c1578063d7819cd1146102df578063f2b60d2a146102fd578063f2fde38b14610331578063ff5406691461034d57610116565b8063989b290c1461024b578063ac3ec7481461027b578063ad4bb90814610299578063ae96f727146102a357610116565b806362d23bf1116100e957806362d23bf1146101b7578063715018a6146101d557806389f94c29146101df5780638da5cb5b1461020f57806394cefc481461022d57610116565b806305395c201461011b578063150b7a02146101395780632f63d892146101695780633e413bee14610199575b600080fd5b610123610369565b604051610130919061213a565b60405180910390f35b610153600480360381019061014e9190612230565b61038f565b60405161016091906122f3565b60405180910390f35b610183600480360381019061017e91906124a4565b6103bd565b604051610190919061255a565b60405180910390f35b6101a16103e6565b6040516101ae919061213a565b60405180910390f35b6101bf61040c565b6040516101cc919061213a565b60405180910390f35b6101dd610432565b005b6101f960048036038101906101f49190612631565b610446565b60405161020691906127c6565b60405180910390f35b610217610469565b604051610224919061213a565b60405180910390f35b610235610492565b604051610242919061213a565b60405180910390f35b61026560048036038101906102609190612901565b6104b8565b604051610272919061255a565b60405180910390f35b6102836104ed565b604051610290919061213a565b60405180910390f35b6102a1610513565b005b6102ab610bc3565b6040516102b8919061213a565b60405180910390f35b6102c9610be9565b6040516102d6919061213a565b60405180910390f35b6102e7610c0f565b6040516102f491906129a7565b60405180910390f35b61031760048036038101906103129190612631565b610c15565b604051610328959493929190612b2d565b60405180910390f35b61034b60048036038101906103469190612b87565b610c4e565b005b61036760048036038101906103629190612c9c565b610cd2565b005b600660009054906101000a900473ffffffffffffffffffffffffffffffffffffffff1681565b60007f150b7a023d4804d13e8c85fb27262cb750cf6ba9f9dd3bb30d90f482ceeb4b1f905095945050505050565b6060816040516020016103d091906127c6565b6040516020818303038152906040529050919050565b600760009054906101000a900473ffffffffffffffffffffffffffffffffffffffff1681565b600160009054906101000a900473ffffffffffffffffffffffffffffffffffffffff1681565b61043a610ee9565b6104446000610f67565b565b61044e612085565b818060200190518101906104629190612e46565b9050919050565b60008060009054906101000a900473ffffffffffffffffffffffffffffffffffffffff16905090565b600260009054906101000a900473ffffffffffffffffffffffffffffffffffffffff1681565b606085858585856040516020016104d3959493929190612b2d565b604051602081830303815290604052905095945050505050565b600460009054906101000a900473ffffffffffffffffffffffffffffffffffffffff1681565b600160009054906101000a900473ffffffffffffffffffffffffffffffffffffffff1673ffffffffffffffffffffffffffffffffffffffff1663fdf262b76040518163ffffffff1660e01b815260040160206040518083038186803b15801561057b57600080fd5b505afa15801561058f573d6000803e3d6000fd5b505050506040513d601f19601f820116820180604052508101906105b39190612eb2565b73ffffffffffffffffffffffffffffffffffffffff1663095ea7b3600160009054906101000a900473ffffffffffffffffffffffffffffffffffffffff167fffffffffffffffffffffffffffffffffffffffffffffffffffffffffffffffff6040518363ffffffff1660e01b815260040161062f929190612edf565b602060405180830381600087803b15801561064957600080fd5b505af115801561065d573d6000803e3d6000fd5b505050506040513d601f19601f820116820180604052508101906106819190612f40565b50600160009054906101000a900473ffffffffffffffffffffffffffffffffffffffff1673ffffffffffffffffffffffffffffffffffffffff1663cdf456e16040518163ffffffff1660e01b815260040160206040518083038186803b1580156106ea57600080fd5b505afa1580156106fe573d6000803e3d6000fd5b505050506040513d601f19601f820116820180604052508101906107229190612eb2565b73ffffffffffffffffffffffffffffffffffffffff1663095ea7b3600160009054906101000a900473ffffffffffffffffffffffffffffffffffffffff167fffffffffffffffffffffffffffffffffffffffffffffffffffffffffffffffff6040518363ffffffff1660e01b815260040161079e929190612edf565b602060405180830381600087803b1580156107b857600080fd5b505af11580156107cc573d6000803e3d6000fd5b505050506040513d601f19601f820116820180604052508101906107f09190612f40565b50600260009054906101000a900473ffffffffffffffffffffffffffffffffffffffff1673ffffffffffffffffffffffffffffffffffffffff1663fdf262b76040518163ffffffff1660e01b815260040160206040518083038186803b15801561085957600080fd5b505afa15801561086d573d6000803e3d6000fd5b505050506040513d601f19601f820116820180604052508101906108919190612eb2565b73ffffffffffffffffffffffffffffffffffffffff1663095ea7b3600260009054906101000a900473ffffffffffffffffffffffffffffffffffffffff167fffffffffffffffffffffffffffffffffffffffffffffffffffffffffffffffff6040518363ffffffff1660e01b815260040161090d929190612edf565b602060405180830381600087803b15801561092757600080fd5b505af115801561093b573d6000803e3d6000fd5b505050506040513d601f19601f8201168201806040525081019061095f9190612f40565b50600260009054906101000a900473ffffffffffffffffffffffffffffffffffffffff1673ffffffffffffffffffffffffffffffffffffffff1663cdf456e16040518163ffffffff1660e01b815260040160206040518083038186803b1580156109c857600080fd5b505afa1580156109dc573d6000803e3d6000fd5b505050506040513d601f19601f82011682018060405250810190610a009190612eb2565b73ffffffffffffffffffffffffffffffffffffffff1663095ea7b3600260009054906101000a900473ffffffffffffffffffffffffffffffffffffffff167fffffffffffffffffffffffffffffffffffffffffffffffffffffffffffffffff6040518363ffffffff1660e01b8152600401610a7c929190612edf565b602060405180830381600087803b158015610a9657600080fd5b505af1158015610aaa573d6000803e3d6000fd5b505050506040513d601f19601f82011682018060405250810190610ace9190612f40565b50600760009054906101000a900473ffffffffffffffffffffffffffffffffffffffff1673ffffffffffffffffffffffffffffffffffffffff1663095ea7b3600360009054906101000a900473ffffffffffffffffffffffffffffffffffffffff167fffffffffffffffffffffffffffffffffffffffffffffffffffffffffffffffff6040518363ffffffff1660e01b8152600401610b6e929190612edf565b602060405180830381600087803b158015610b8857600080fd5b505af1158015610b9c573d6000803e3d6000fd5b505050506040513d601f19601f82011682018060405250810190610bc09190612f40565b50565b600560009054906101000a900473ffffffffffffffffffffffffffffffffffffffff1681565b600360009054906101000a900473ffffffffffffffffffffffffffffffffffffffff1681565b60085481565b600080600080606085806020019051810190610c3191906130e5565b809550819650829750839850849950505050505091939590929450565b610c56610ee9565b600073ffffffffffffffffffffffffffffffffffffffff168173ffffffffffffffffffffffffffffffffffffffff161415610cc6576040517f08c379a0000000000000000000000000000000000000000000000000000000008152600401610cbd906131ff565b60405180910390fd5b610ccf81610f67565b50565b8151835114610d16576040517f08c379a0000000000000000000000000000000000000000000000000000000008152600401610d0d9061326b565b60405180910390fd5b60005b8351811015610e795760006002811115610d3657610d35612689565b5b848281518110610d4957610d4861328b565b5b60200260200101516002811115610d6357610d62612689565b5b1480610dad575060016002811115610d7e57610d7d612689565b5b848281518110610d9157610d9061328b565b5b60200260200101516002811115610dab57610daa612689565b5b145b15610df857610df3848281518110610dc857610dc761328b565b5b6020026020010151848381518110610de357610de261328b565b5b602002602001015160085461102b565b610e66565b600280811115610e0b57610e0a612689565b5b848281518110610e1e57610e1d61328b565b5b60200260200101516002811115610e3857610e37612689565b5b1415610e6557610e64838281518110610e5457610e5361328b565b5b6020026020010151600854611ce6565b5b5b8080610e71906132e9565b915050610d19565b503373ffffffffffffffffffffffffffffffffffffffff167fdf35236315d79f749febbbe30af46d136cadd5dc4f8006c5668c7bd2fac5da7260085483604051610ec4929190613332565b60405180910390a260086000815480929190610edf906132e9565b9190505550505050565b610ef161207d565b73ffffffffffffffffffffffffffffffffffffffff16610f0f610469565b73ffffffffffffffffffffffffffffffffffffffff1614610f65576040517f08c379a0000000000000000000000000000000000000000000000000000000008152600401610f5c906133a7565b60405180910390fd5b565b60008060009054906101000a900473ffffffffffffffffffffffffffffffffffffffff169050816000806101000a81548173ffffffffffffffffffffffffffffffffffffffff021916908373ffffffffffffffffffffffffffffffffffffffff1602179055508173ffffffffffffffffffffffffffffffffffffffff168173ffffffffffffffffffffffffffffffffffffffff167f8be0079c531659141344cd1fd0a4f28419497f9722a3daafe3b4186f6b6457e060405160405180910390a35050565b600061103683610446565b90506000600160009054906101000a900473ffffffffffffffffffffffffffffffffffffffff1690506000600460009054906101000a900473ffffffffffffffffffffffffffffffffffffffff1690506001600281111561109a57611099612689565b5b8660028111156110ad576110ac612689565b5b14156110fe57600260009054906101000a900473ffffffffffffffffffffffffffffffffffffffff169150600560009054906101000a900473ffffffffffffffffffffffffffffffffffffffff1690505b6000806000600481111561111557611114612689565b5b8560600151600481111561112c5761112b612689565b5b148061116057506001600481111561114757611146612689565b5b8560600151600481111561115e5761115d612689565b5b145b15611315578373ffffffffffffffffffffffffffffffffffffffff1663fdf262b76040518163ffffffff1660e01b815260040160206040518083038186803b1580156111ab57600080fd5b505afa1580156111bf573d6000803e3d6000fd5b505050506040513d601f19601f820116820180604052508101906111e39190612eb2565b73ffffffffffffffffffffffffffffffffffffffff1663313ce5676040518163ffffffff1660e01b815260040160206040518083038186803b15801561122857600080fd5b505afa15801561123c573d6000803e3d6000fd5b505050506040513d601f19601f820116820180604052508101906112609190613400565b600a61126c9190613560565b670de0b6b3a764000061127f91906135da565b8560e0015161128e91906135da565b91508373ffffffffffffffffffffffffffffffffffffffff1663fdf262b76040518163ffffffff1660e01b815260040160206040518083038186803b1580156112d657600080fd5b505afa1580156112ea573d6000803e3d6000fd5b505050506040513d601f19601f8201168201806040525081019061130e9190612eb2565b9050611707565b6003600481111561132957611328612689565b5b856060015160048111156113405761133f612689565b5b1480611373575060048081111561135a57611359612689565b5b8560600151600481111561137157611370612689565b5b145b15611528578373ffffffffffffffffffffffffffffffffffffffff1663fdf262b76040518163ffffffff1660e01b815260040160206040518083038186803b1580156113be57600080fd5b505afa1580156113d2573d6000803e3d6000fd5b505050506040513d601f19601f820116820180604052508101906113f69190612eb2565b73ffffffffffffffffffffffffffffffffffffffff1663313ce5676040518163ffffffff1660e01b815260040160206040518083038186803b15801561143b57600080fd5b505afa15801561144f573d6000803e3d6000fd5b505050506040513d601f19601f820116820180604052508101906114739190613400565b600a61147f9190613560565b670de0b6b3a764000061149291906135da565b8560a001516114a191906135da565b91508373ffffffffffffffffffffffffffffffffffffffff1663fdf262b76040518163ffffffff1660e01b815260040160206040518083038186803b1580156114e957600080fd5b505afa1580156114fd573d6000803e3d6000fd5b505050506040513d601f19601f820116820180604052508101906115219190612eb2565b9050611706565b6002600481111561153c5761153b612689565b5b8560600151600481111561155357611552612689565b5b1415611705578373ffffffffffffffffffffffffffffffffffffffff1663cdf456e16040518163ffffffff1660e01b815260040160206040518083038186803b15801561159f57600080fd5b505afa1580156115b3573d6000803e3d6000fd5b505050506040513d601f19601f820116820180604052508101906115d79190612eb2565b73ffffffffffffffffffffffffffffffffffffffff1663313ce5676040518163ffffffff1660e01b815260040160206040518083038186803b15801561161c57600080fd5b505afa158015611630573d6000803e3d6000fd5b505050506040513d601f19601f820116820180604052508101906116549190613400565b600a6116609190613560565b670de0b6b3a764000061167391906135da565b8560a0015161168291906135da565b91508373ffffffffffffffffffffffffffffffffffffffff1663cdf456e16040518163ffffffff1660e01b815260040160206040518083038186803b1580156116ca57600080fd5b505afa1580156116de573d6000803e3d6000fd5b505050506040513d601f19601f820116820180604052508101906117029190612eb2565b90505b5b5b8073ffffffffffffffffffffffffffffffffffffffff166323b872dd3330856040518463ffffffff1660e01b81526004016117449392919061360b565b602060405180830381600087803b15801561175e57600080fd5b505af1158015611772573d6000803e3d6000fd5b505050506040513d601f19601f820116820180604052508101906117969190612f40565b5060008373ffffffffffffffffffffffffffffffffffffffff166361b8ce8c6040518163ffffffff1660e01b815260040160206040518083038186803b1580156117df57600080fd5b505afa1580156117f3573d6000803e3d6000fd5b505050506040513d601f19601f820116820180604052508101906118179190613642565b90508473ffffffffffffffffffffffffffffffffffffffff1663d6c0bb44876040518263ffffffff1660e01b815260040161185291906127c6565b606060405180830381600087803b15801561186c57600080fd5b505af1158015611880573d6000803e3d6000fd5b505050506040513d601f19601f820116820180604052508101906118a491906136d3565b508173ffffffffffffffffffffffffffffffffffffffff1663a9059cbb338473ffffffffffffffffffffffffffffffffffffffff166370a08231306040518263ffffffff1660e01b81526004016118fb919061213a565b60206040518083038186803b15801561191357600080fd5b505afa158015611927573d6000803e3d6000fd5b505050506040513d601f19601f8201168201806040525081019061194b9190613642565b6040518363ffffffff1660e01b8152600401611968929190612edf565b602060405180830381600087803b15801561198257600080fd5b505af1158015611996573d6000803e3d6000fd5b505050506040513d601f19601f820116820180604052508101906119ba9190612f40565b508373ffffffffffffffffffffffffffffffffffffffff166323b872dd3033846040518463ffffffff1660e01b81526004016119f89392919061360b565b600060405180830381600087803b158015611a1257600080fd5b505af1158015611a26573d6000803e3d6000fd5b5050505060026004811115611a3e57611a3d612689565b5b86606001516004811115611a5557611a54612689565b5b1415611c6c578473ffffffffffffffffffffffffffffffffffffffff1663fdf262b76040518163ffffffff1660e01b815260040160206040518083038186803b158015611aa157600080fd5b505afa158015611ab5573d6000803e3d6000fd5b505050506040513d601f19601f82011682018060405250810190611ad99190612eb2565b73ffffffffffffffffffffffffffffffffffffffff1663a9059cbb338773ffffffffffffffffffffffffffffffffffffffff1663fdf262b76040518163ffffffff1660e01b815260040160206040518083038186803b158015611b3b57600080fd5b505afa158015611b4f573d6000803e3d6000fd5b505050506040513d601f19601f82011682018060405250810190611b739190612eb2565b73ffffffffffffffffffffffffffffffffffffffff166370a08231306040518263ffffffff1660e01b8152600401611bab919061213a565b60206040518083038186803b158015611bc357600080fd5b505afa158015611bd7573d6000803e3d6000fd5b505050506040513d601f19601f82011682018060405250810190611bfb9190613642565b6040518363ffffffff1660e01b8152600401611c18929190612edf565b602060405180830381600087803b158015611c3257600080fd5b505af1158015611c46573d6000803e3d6000fd5b505050506040513d601f19601f82011682018060405250810190611c6a9190612f40565b505b867f8650344f378c8df5446864351ca3e88677936be22fcf7b4d2254da11ce46875a8760000151886020015189604001518a606001518b608001518c60a001518d60c001518e60e001518f61010001518b604051611cd39a9998979695949392919061370f565b60405180910390a2505050505050505050565b6000806000806000611cf787610c15565b9450945094509450945060008573ffffffffffffffffffffffffffffffffffffffff1663d666b4338585856040518463ffffffff1660e01b8152600401611d40939291906137ab565b604080518083038186803b158015611d5757600080fd5b505afa158015611d6b573d6000803e3d6000fd5b505050506040513d601f19601f82011682018060405250810190611d8f9190613831565b9150506000816fffffffffffffffffffffffffffffffff169050600760009054906101000a900473ffffffffffffffffffffffffffffffffffffffff1673ffffffffffffffffffffffffffffffffffffffff166323b872dd3330846040518463ffffffff1660e01b8152600401611e089392919061360b565b602060405180830381600087803b158015611e2257600080fd5b505af1158015611e36573d6000803e3d6000fd5b505050506040513d601f19601f82011682018060405250810190611e5a9190612f40565b506000600660009054906101000a900473ffffffffffffffffffffffffffffffffffffffff1673ffffffffffffffffffffffffffffffffffffffff166375794a3c6040518163ffffffff1660e01b815260040160206040518083038186803b158015611ec557600080fd5b505afa158015611ed9573d6000803e3d6000fd5b505050506040513d601f19601f82011682018060405250810190611efd9190613642565b9050600360009054906101000a900473ffffffffffffffffffffffffffffffffffffffff1673ffffffffffffffffffffffffffffffffffffffff16630e5024d789898989896040518663ffffffff1660e01b8152600401611f62959493929190612b2d565b600060405180830381600087803b158015611f7c57600080fd5b505af1158015611f90573d6000803e3d6000fd5b50505050600660009054906101000a900473ffffffffffffffffffffffffffffffffffffffff1673ffffffffffffffffffffffffffffffffffffffff166323b872dd30338480611fdf906132e9565b95506040518463ffffffff1660e01b8152600401611fff9392919061360b565b600060405180830381600087803b15801561201957600080fd5b505af115801561202d573d6000803e3d6000fd5b50505050887f073839ec295c510f37b0347031e30ca4c5db982df8037ddbda3844d07d70770a828a8a8a8a604051612069959493929190613871565b60405180910390a250505050505050505050565b600033905090565b604051806101200160405280600081526020016000815260200160008152602001600060048111156120ba576120b9612689565b5b815260200160008152602001600081526020016000815260200160008152602001600073ffffffffffffffffffffffffffffffffffffffff1681525090565b600073ffffffffffffffffffffffffffffffffffffffff82169050919050565b6000612124826120f9565b9050919050565b61213481612119565b82525050565b600060208201905061214f600083018461212b565b92915050565b6000604051905090565b600080fd5b600080fd5b61217281612119565b811461217d57600080fd5b50565b60008135905061218f81612169565b92915050565b6000819050919050565b6121a881612195565b81146121b357600080fd5b50565b6000813590506121c58161219f565b92915050565b600080fd5b600080fd5b600080fd5b60008083601f8401126121f0576121ef6121cb565b5b8235905067ffffffffffffffff81111561220d5761220c6121d0565b5b602083019150836001820283011115612229576122286121d5565b5b9250929050565b60008060008060006080868803121561224c5761224b61215f565b5b600061225a88828901612180565b955050602061226b88828901612180565b945050604061227c888289016121b6565b935050606086013567ffffffffffffffff81111561229d5761229c612164565b5b6122a9888289016121da565b92509250509295509295909350565b60007fffffffff0000000000000000000000000000000000000000000000000000000082169050919050565b6122ed816122b8565b82525050565b600060208201905061230860008301846122e4565b92915050565b600080fd5b6000601f19601f8301169050919050565b7f4e487b7100000000000000000000000000000000000000000000000000000000600052604160045260246000fd5b61235c82612313565b810181811067ffffffffffffffff8211171561237b5761237a612324565b5b80604052505050565b600061238e612155565b905061239a8282612353565b919050565b600581106123ac57600080fd5b50565b6000813590506123be8161239f565b92915050565b600061012082840312156123db576123da61230e565b5b6123e6610120612384565b905060006123f6848285016121b6565b600083015250602061240a848285016121b6565b602083015250604061241e848285016121b6565b6040830152506060612432848285016123af565b6060830152506080612446848285016121b6565b60808301525060a061245a848285016121b6565b60a08301525060c061246e848285016121b6565b60c08301525060e0612482848285016121b6565b60e08301525061010061249784828501612180565b6101008301525092915050565b600061012082840312156124bb576124ba61215f565b5b60006124c9848285016123c4565b91505092915050565b600081519050919050565b600082825260208201905092915050565b60005b8381101561250c5780820151818401526020810190506124f1565b8381111561251b576000848401525b50505050565b600061252c826124d2565b61253681856124dd565b93506125468185602086016124ee565b61254f81612313565b840191505092915050565b600060208201905081810360008301526125748184612521565b905092915050565b600080fd5b600067ffffffffffffffff82111561259c5761259b612324565b5b6125a582612313565b9050602081019050919050565b82818337600083830152505050565b60006125d46125cf84612581565b612384565b9050828152602081018484840111156125f0576125ef61257c565b5b6125fb8482856125b2565b509392505050565b600082601f830112612618576126176121cb565b5b81356126288482602086016125c1565b91505092915050565b6000602082840312156126475761264661215f565b5b600082013567ffffffffffffffff81111561266557612664612164565b5b61267184828501612603565b91505092915050565b61268381612195565b82525050565b7f4e487b7100000000000000000000000000000000000000000000000000000000600052602160045260246000fd5b600581106126c9576126c8612689565b5b50565b60008190506126da826126b8565b919050565b60006126ea826126cc565b9050919050565b6126fa816126df565b82525050565b61270981612119565b82525050565b61012082016000820151612726600085018261267a565b506020820151612739602085018261267a565b50604082015161274c604085018261267a565b50606082015161275f60608501826126f1565b506080820151612772608085018261267a565b5060a082015161278560a085018261267a565b5060c082015161279860c085018261267a565b5060e08201516127ab60e085018261267a565b506101008201516127c0610100850182612700565b50505050565b6000610120820190506127dc600083018461270f565b92915050565b60006127ed82612119565b9050919050565b6127fd816127e2565b811461280857600080fd5b50565b60008135905061281a816127f4565b92915050565b600067ffffffffffffffff82111561283b5761283a612324565b5b602082029050602081019050919050565b600061285f61285a84612820565b612384565b90508083825260208201905060208402830185811115612882576128816121d5565b5b835b818110156128c957803567ffffffffffffffff8111156128a7576128a66121cb565b5b8086016128b48982612603565b85526020850194505050602081019050612884565b5050509392505050565b600082601f8301126128e8576128e76121cb565b5b81356128f884826020860161284c565b91505092915050565b600080600080600060a0868803121561291d5761291c61215f565b5b600061292b8882890161280b565b955050602061293c88828901612180565b945050604061294d888289016121b6565b935050606061295e888289016121b6565b925050608086013567ffffffffffffffff81111561297f5761297e612164565b5b61298b888289016128d3565b9150509295509295909350565b6129a181612195565b82525050565b60006020820190506129bc6000830184612998565b92915050565b6000819050919050565b60006129e76129e26129dd846120f9565b6129c2565b6120f9565b9050919050565b60006129f9826129cc565b9050919050565b6000612a0b826129ee565b9050919050565b612a1b81612a00565b82525050565b600081519050919050565b600082825260208201905092915050565b6000819050602082019050919050565b600082825260208201905092915050565b6000612a69826124d2565b612a738185612a4d565b9350612a838185602086016124ee565b612a8c81612313565b840191505092915050565b6000612aa38383612a5e565b905092915050565b6000602082019050919050565b6000612ac382612a21565b612acd8185612a2c565b935083602082028501612adf85612a3d565b8060005b85811015612b1b5784840389528151612afc8582612a97565b9450612b0783612aab565b925060208a01995050600181019050612ae3565b50829750879550505050505092915050565b600060a082019050612b426000830188612a12565b612b4f602083018761212b565b612b5c6040830186612998565b612b696060830185612998565b8181036080830152612b7b8184612ab8565b90509695505050505050565b600060208284031215612b9d57612b9c61215f565b5b6000612bab84828501612180565b91505092915050565b600067ffffffffffffffff821115612bcf57612bce612324565b5b602082029050602081019050919050565b60038110612bed57600080fd5b50565b600081359050612bff81612be0565b92915050565b6000612c18612c1384612bb4565b612384565b90508083825260208201905060208402830185811115612c3b57612c3a6121d5565b5b835b81811015612c645780612c508882612bf0565b845260208401935050602081019050612c3d565b5050509392505050565b600082601f830112612c8357612c826121cb565b5b8135612c93848260208601612c05565b91505092915050565b600080600060608486031215612cb557612cb461215f565b5b600084013567ffffffffffffffff811115612cd357612cd2612164565b5b612cdf86828701612c6e565b935050602084013567ffffffffffffffff811115612d0057612cff612164565b5b612d0c868287016128d3565b9250506040612d1d868287016121b6565b9150509250925092565b600081519050612d368161219f565b92915050565b600081519050612d4b8161239f565b92915050565b600081519050612d6081612169565b92915050565b60006101208284031215612d7d57612d7c61230e565b5b612d88610120612384565b90506000612d9884828501612d27565b6000830152506020612dac84828501612d27565b6020830152506040612dc084828501612d27565b6040830152506060612dd484828501612d3c565b6060830152506080612de884828501612d27565b60808301525060a0612dfc84828501612d27565b60a08301525060c0612e1084828501612d27565b60c08301525060e0612e2484828501612d27565b60e083015250610100612e3984828501612d51565b6101008301525092915050565b60006101208284031215612e5d57612e5c61215f565b5b6000612e6b84828501612d66565b91505092915050565b6000612e7f82612119565b9050919050565b612e8f81612e74565b8114612e9a57600080fd5b50565b600081519050612eac81612e86565b92915050565b600060208284031215612ec857612ec761215f565b5b6000612ed684828501612e9d565b91505092915050565b6000604082019050612ef4600083018561212b565b612f016020830184612998565b9392505050565b60008115159050919050565b612f1d81612f08565b8114612f2857600080fd5b50565b600081519050612f3a81612f14565b92915050565b600060208284031215612f5657612f5561215f565b5b6000612f6484828501612f2b565b91505092915050565b600081519050612f7c816127f4565b92915050565b6000612f8d826120f9565b9050919050565b612f9d81612f82565b8114612fa857600080fd5b50565b600081519050612fba81612f94565b92915050565b6000612fd3612fce84612581565b612384565b905082815260208101848484011115612fef57612fee61257c565b5b612ffa8482856124ee565b509392505050565b600082601f830112613017576130166121cb565b5b8151613027848260208601612fc0565b91505092915050565b600061304361303e84612820565b612384565b90508083825260208201905060208402830185811115613066576130656121d5565b5b835b818110156130ad57805167ffffffffffffffff81111561308b5761308a6121cb565b5b8086016130988982613002565b85526020850194505050602081019050613068565b5050509392505050565b600082601f8301126130cc576130cb6121cb565b5b81516130dc848260208601613030565b91505092915050565b600080600080600060a086880312156131015761310061215f565b5b600061310f88828901612f6d565b955050602061312088828901612fab565b945050604061313188828901612d27565b935050606061314288828901612d27565b925050608086015167ffffffffffffffff81111561316357613162612164565b5b61316f888289016130b7565b9150509295509295909350565b600082825260208201905092915050565b7f4f776e61626c653a206e6577206f776e657220697320746865207a65726f206160008201527f6464726573730000000000000000000000000000000000000000000000000000602082015250565b60006131e960268361317c565b91506131f48261318d565b604082019050919050565b60006020820190508181036000830152613218816131dc565b9050919050565b7f617272617973206e6f7420657175616c00000000000000000000000000000000600082015250565b600061325560108361317c565b91506132608261321f565b602082019050919050565b6000602082019050818103600083015261328481613248565b9050919050565b7f4e487b7100000000000000000000000000000000000000000000000000000000600052603260045260246000fd5b7f4e487b7100000000000000000000000000000000000000000000000000000000600052601160045260246000fd5b60006132f482612195565b91507fffffffffffffffffffffffffffffffffffffffffffffffffffffffffffffffff821415613327576133266132ba565b5b600182019050919050565b60006040820190506133476000830185612998565b6133546020830184612998565b9392505050565b7f4f776e61626c653a2063616c6c6572206973206e6f7420746865206f776e6572600082015250565b600061339160208361317c565b915061339c8261335b565b602082019050919050565b600060208201905081810360008301526133c081613384565b9050919050565b600060ff82169050919050565b6133dd816133c7565b81146133e857600080fd5b50565b6000815190506133fa816133d4565b92915050565b6000602082840312156134165761341561215f565b5b6000613424848285016133eb565b91505092915050565b60008160011c9050919050565b6000808291508390505b6001851115613484578086048111156134605761345f6132ba565b5b600185161561346f5780820291505b808102905061347d8561342d565b9450613444565b94509492505050565b60008261349d5760019050613559565b816134ab5760009050613559565b81600181146134c157600281146134cb576134fa565b6001915050613559565b60ff8411156134dd576134dc6132ba565b5b8360020a9150848211156134f4576134f36132ba565b5b50613559565b5060208310610133831016604e8410600b841016171561352f5782820a90508381111561352a576135296132ba565b5b613559565b61353c848484600161343a565b92509050818404811115613553576135526132ba565b5b81810290505b9392505050565b600061356b82612195565b9150613576836133c7565b92506135a37fffffffffffffffffffffffffffffffffffffffffffffffffffffffffffffffff848461348d565b905092915050565b7f4e487b7100000000000000000000000000000000000000000000000000000000600052601260045260246000fd5b60006135e582612195565b91506135f083612195565b925082613600576135ff6135ab565b5b828204905092915050565b6000606082019050613620600083018661212b565b61362d602083018561212b565b61363a6040830184612998565b949350505050565b6000602082840312156136585761365761215f565b5b600061366684828501612d27565b91505092915050565b6000606082840312156136855761368461230e565b5b61368f6060612384565b9050600061369f84828501612d27565b60008301525060206136b384828501612d27565b60208301525060406136c784828501612d27565b60408301525092915050565b6000606082840312156136e9576136e861215f565b5b60006136f78482850161366f565b91505092915050565b613709816126df565b82525050565b600061014082019050613725600083018d612998565b613732602083018c612998565b61373f604083018b612998565b61374c606083018a613700565b6137596080830189612998565b61376660a0830188612998565b61377360c0830187612998565b61378060e0830186612998565b61378e61010083018561212b565b61379c610120830184612998565b9b9a5050505050505050505050565b60006060820190506137c06000830186612998565b6137cd6020830185612998565b81810360408301526137df8184612ab8565b9050949350505050565b60006fffffffffffffffffffffffffffffffff82169050919050565b61380e816137e9565b811461381957600080fd5b50565b60008151905061382b81613805565b92915050565b600080604083850312156138485761384761215f565b5b60006138568582860161381c565b92505060206138678582860161381c565b9150509250929050565b600060a0820190506138866000830188612998565b613893602083018761212b565b6138a0604083018661212b565b6138ad6060830185612998565b6138ba6080830184612998565b969550505050505056fea2646970667358221220996cc9ed53b676bbd374c0962e76670b1df8bae8804870a9e514ca05ce58283864736f6c63430008090033",
  "devdoc": {
    "kind": "dev",
    "methods": {
      "owner()": {
        "details": "Returns the address of the current owner."
      },
      "renounceOwnership()": {
        "details": "Leaves the contract without owner. It will not be possible to call `onlyOwner` functions anymore. Can only be called by the current owner. NOTE: Renouncing ownership will leave the contract without an owner, thereby removing any functionality that is only available to the owner."
      },
      "transferOwnership(address)": {
        "details": "Transfers ownership of the contract to a new account (`newOwner`). Can only be called by the current owner."
      }
    },
    "version": 1
  },
  "userdoc": {
    "kind": "user",
    "methods": {},
    "version": 1
  },
  "storageLayout": {
    "storage": [
      {
        "astId": 7,
        "contract": "contracts/OptionBuilderOpen.sol:OptionBuilderOpen",
        "label": "_owner",
        "offset": 0,
        "slot": "0",
        "type": "t_address"
      },
      {
        "astId": 1069,
        "contract": "contracts/OptionBuilderOpen.sol:OptionBuilderOpen",
        "label": "lyra_eth",
        "offset": 0,
        "slot": "1",
        "type": "t_address"
      },
      {
        "astId": 1071,
        "contract": "contracts/OptionBuilderOpen.sol:OptionBuilderOpen",
        "label": "lyra_btc",
        "offset": 0,
        "slot": "2",
        "type": "t_address"
      },
      {
        "astId": 1073,
        "contract": "contracts/OptionBuilderOpen.sol:OptionBuilderOpen",
        "label": "operationalTreasury",
        "offset": 0,
        "slot": "3",
        "type": "t_address"
      },
      {
        "astId": 1075,
        "contract": "contracts/OptionBuilderOpen.sol:OptionBuilderOpen",
        "label": "lyra_ethErc721",
        "offset": 0,
        "slot": "4",
        "type": "t_address"
      },
      {
        "astId": 1077,
        "contract": "contracts/OptionBuilderOpen.sol:OptionBuilderOpen",
        "label": "lyra_btcErc721",
        "offset": 0,
        "slot": "5",
        "type": "t_address"
      },
      {
        "astId": 1079,
        "contract": "contracts/OptionBuilderOpen.sol:OptionBuilderOpen",
        "label": "hegicErc721",
        "offset": 0,
        "slot": "6",
        "type": "t_address"
      },
      {
        "astId": 1081,
        "contract": "contracts/OptionBuilderOpen.sol:OptionBuilderOpen",
        "label": "usdc",
        "offset": 0,
        "slot": "7",
        "type": "t_address"
      },
      {
        "astId": 1084,
        "contract": "contracts/OptionBuilderOpen.sol:OptionBuilderOpen",
        "label": "nextBuildID",
        "offset": 0,
        "slot": "8",
        "type": "t_uint256"
      }
    ],
    "types": {
      "t_address": {
        "encoding": "inplace",
        "label": "address",
        "numberOfBytes": "20"
      },
      "t_uint256": {
        "encoding": "inplace",
        "label": "uint256",
        "numberOfBytes": "32"
      }
    }
  }
}