{
  "address": "0xe5EaFFd06db43E73C5D3a7608F6901680BDB93a2",
  "abi": [
    {
      "inputs": [
        {
          "internalType": "address",
          "name": "_lyra_eth",
          "type": "address"
        },
        {
          "internalType": "address",
          "name": "_lyra_btc",
          "type": "address"
        },
        {
          "internalType": "address",
          "name": "_operationalTreasury",
          "type": "address"
        },
        {
          "internalType": "address",
          "name": "_lyra_ethErc721",
          "type": "address"
        },
        {
          "internalType": "address",
          "name": "_lyra_btcErc721",
          "type": "address"
        },
        {
          "internalType": "address",
          "name": "_hegicErc721",
          "type": "address"
        },
        {
          "internalType": "address",
          "name": "_usdc",
          "type": "address"
        }
      ],
      "stateMutability": "nonpayable",
      "type": "constructor"
    },
    {
      "anonymous": false,
      "inputs": [
        {
          "indexed": true,
          "internalType": "uint256",
          "name": "buildID",
          "type": "uint256"
        },
        {
          "indexed": false,
          "internalType": "uint256",
          "name": "tokenID",
          "type": "uint256"
        },
        {
          "indexed": false,
          "internalType": "address",
          "name": "account",
          "type": "address"
        }
      ],
      "name": "ClosePositionByHegic",
      "type": "event"
    },
    {
      "anonymous": false,
      "inputs": [
        {
          "indexed": true,
          "internalType": "uint256",
          "name": "buildID",
          "type": "uint256"
        },
        {
          "indexed": false,
          "internalType": "uint256",
          "name": "strikeId",
          "type": "uint256"
        },
        {
          "indexed": false,
          "internalType": "uint256",
          "name": "positionId",
          "type": "uint256"
        },
        {
          "indexed": false,
          "internalType": "uint256",
          "name": "iterations",
          "type": "uint256"
        },
        {
          "indexed": false,
          "internalType": "enum ILyra.OptionType",
          "name": "optionType",
          "type": "uint8"
        },
        {
          "indexed": false,
          "internalType": "uint256",
          "name": "amount",
          "type": "uint256"
        },
        {
          "indexed": false,
          "internalType": "uint256",
          "name": "setCollateralTo",
          "type": "uint256"
        },
        {
          "indexed": false,
          "internalType": "uint256",
          "name": "minTotalCost",
          "type": "uint256"
        },
        {
          "indexed": false,
          "internalType": "uint256",
          "name": "maxTotalCost",
          "type": "uint256"
        },
        {
          "indexed": false,
          "internalType": "address",
          "name": "referrer",
          "type": "address"
        }
      ],
      "name": "ClosePositionByLyra",
      "type": "event"
    },
    {
      "anonymous": false,
      "inputs": [
        {
          "indexed": false,
          "internalType": "uint256",
          "name": "buildID",
          "type": "uint256"
        },
        {
          "indexed": true,
          "internalType": "address",
          "name": "user",
          "type": "address"
        },
        {
          "indexed": false,
          "internalType": "uint256",
          "name": "productType",
          "type": "uint256"
        }
      ],
      "name": "CreateBuild",
      "type": "event"
    },
    {
      "anonymous": false,
      "inputs": [
        {
          "indexed": true,
          "internalType": "address",
          "name": "previousOwner",
          "type": "address"
        },
        {
          "indexed": true,
          "internalType": "address",
          "name": "newOwner",
          "type": "address"
        }
      ],
      "name": "OwnershipTransferred",
      "type": "event"
    },
    {
      "inputs": [],
      "name": "allApprove",
      "outputs": [],
      "stateMutability": "nonpayable",
      "type": "function"
    },
    {
      "inputs": [
        {
          "internalType": "enum BaseOptionBuilder.ProtocolType[]",
          "name": "protocolsArrays",
          "type": "uint8[]"
        },
        {
          "internalType": "bytes[]",
          "name": "parametersArray",
          "type": "bytes[]"
        },
        {
          "internalType": "uint256",
          "name": "productType",
          "type": "uint256"
        }
      ],
      "name": "consolidationOfTransactions",
      "outputs": [],
      "stateMutability": "nonpayable",
      "type": "function"
    },
    {
      "inputs": [
        {
          "internalType": "bytes",
          "name": "paramData",
          "type": "bytes"
        }
      ],
      "name": "decodeFromHegic",
      "outputs": [
        {
          "internalType": "address",
          "name": "account",
          "type": "address"
        },
        {
          "internalType": "uint256",
          "name": "positionID",
          "type": "uint256"
        }
      ],
      "stateMutability": "pure",
      "type": "function"
    },
    {
      "inputs": [
        {
          "internalType": "bytes",
          "name": "paramData",
          "type": "bytes"
        }
      ],
      "name": "decodeFromLyra",
      "outputs": [
        {
          "internalType": "address",
          "name": "account",
          "type": "address"
        },
        {
          "components": [
            {
              "internalType": "uint256",
              "name": "strikeId",
              "type": "uint256"
            },
            {
              "internalType": "uint256",
              "name": "positionId",
              "type": "uint256"
            },
            {
              "internalType": "uint256",
              "name": "iterations",
              "type": "uint256"
            },
            {
              "internalType": "enum ILyra.OptionType",
              "name": "optionType",
              "type": "uint8"
            },
            {
              "internalType": "uint256",
              "name": "amount",
              "type": "uint256"
            },
            {
              "internalType": "uint256",
              "name": "setCollateralTo",
              "type": "uint256"
            },
            {
              "internalType": "uint256",
              "name": "minTotalCost",
              "type": "uint256"
            },
            {
              "internalType": "uint256",
              "name": "maxTotalCost",
              "type": "uint256"
            },
            {
              "internalType": "address",
              "name": "referrer",
              "type": "address"
            }
          ],
          "internalType": "struct ILyra.TradeInputParameters",
          "name": "params",
          "type": "tuple"
        },
        {
          "internalType": "uint256",
          "name": "premium",
          "type": "uint256"
        }
      ],
      "stateMutability": "pure",
      "type": "function"
    },
    {
      "inputs": [
        {
          "internalType": "address",
          "name": "account",
          "type": "address"
        },
        {
          "internalType": "uint256",
          "name": "positionID",
          "type": "uint256"
        }
      ],
      "name": "encodeFromHegic",
      "outputs": [
        {
          "internalType": "bytes",
          "name": "paramData",
          "type": "bytes"
        }
      ],
      "stateMutability": "pure",
      "type": "function"
    },
    {
      "inputs": [
        {
          "internalType": "address",
          "name": "account",
          "type": "address"
        },
        {
          "components": [
            {
              "internalType": "uint256",
              "name": "strikeId",
              "type": "uint256"
            },
            {
              "internalType": "uint256",
              "name": "positionId",
              "type": "uint256"
            },
            {
              "internalType": "uint256",
              "name": "iterations",
              "type": "uint256"
            },
            {
              "internalType": "enum ILyra.OptionType",
              "name": "optionType",
              "type": "uint8"
            },
            {
              "internalType": "uint256",
              "name": "amount",
              "type": "uint256"
            },
            {
              "internalType": "uint256",
              "name": "setCollateralTo",
              "type": "uint256"
            },
            {
              "internalType": "uint256",
              "name": "minTotalCost",
              "type": "uint256"
            },
            {
              "internalType": "uint256",
              "name": "maxTotalCost",
              "type": "uint256"
            },
            {
              "internalType": "address",
              "name": "referrer",
              "type": "address"
            }
          ],
          "internalType": "struct ILyra.TradeInputParameters",
          "name": "params",
          "type": "tuple"
        },
        {
          "internalType": "uint256",
          "name": "premium",
          "type": "uint256"
        }
      ],
      "name": "encodeFromLyra",
      "outputs": [
        {
          "internalType": "bytes",
          "name": "paramData",
          "type": "bytes"
        }
      ],
      "stateMutability": "pure",
      "type": "function"
    },
    {
      "inputs": [],
      "name": "hegicErc721",
      "outputs": [
        {
          "internalType": "address",
          "name": "",
          "type": "address"
        }
      ],
      "stateMutability": "view",
      "type": "function"
    },
    {
      "inputs": [],
      "name": "lyra_btc",
      "outputs": [
        {
          "internalType": "address",
          "name": "",
          "type": "address"
        }
      ],
      "stateMutability": "view",
      "type": "function"
    },
    {
      "inputs": [],
      "name": "lyra_btcErc721",
      "outputs": [
        {
          "internalType": "address",
          "name": "",
          "type": "address"
        }
      ],
      "stateMutability": "view",
      "type": "function"
    },
    {
      "inputs": [],
      "name": "lyra_eth",
      "outputs": [
        {
          "internalType": "address",
          "name": "",
          "type": "address"
        }
      ],
      "stateMutability": "view",
      "type": "function"
    },
    {
      "inputs": [],
      "name": "lyra_ethErc721",
      "outputs": [
        {
          "internalType": "address",
          "name": "",
          "type": "address"
        }
      ],
      "stateMutability": "view",
      "type": "function"
    },
    {
      "inputs": [],
      "name": "nextBuildID",
      "outputs": [
        {
          "internalType": "uint256",
          "name": "",
          "type": "uint256"
        }
      ],
      "stateMutability": "view",
      "type": "function"
    },
    {
      "inputs": [
        {
          "internalType": "address",
          "name": "",
          "type": "address"
        },
        {
          "internalType": "address",
          "name": "",
          "type": "address"
        },
        {
          "internalType": "uint256",
          "name": "",
          "type": "uint256"
        },
        {
          "internalType": "bytes",
          "name": "",
          "type": "bytes"
        }
      ],
      "name": "onERC721Received",
      "outputs": [
        {
          "internalType": "bytes4",
          "name": "",
          "type": "bytes4"
        }
      ],
      "stateMutability": "nonpayable",
      "type": "function"
    },
    {
      "inputs": [],
      "name": "operationalTreasury",
      "outputs": [
        {
          "internalType": "address",
          "name": "",
          "type": "address"
        }
      ],
      "stateMutability": "view",
      "type": "function"
    },
    {
      "inputs": [],
      "name": "owner",
      "outputs": [
        {
          "internalType": "address",
          "name": "",
          "type": "address"
        }
      ],
      "stateMutability": "view",
      "type": "function"
    },
    {
      "inputs": [],
      "name": "renounceOwnership",
      "outputs": [],
      "stateMutability": "nonpayable",
      "type": "function"
    },
    {
      "inputs": [
        {
          "internalType": "address",
          "name": "newOwner",
          "type": "address"
        }
      ],
      "name": "transferOwnership",
      "outputs": [],
      "stateMutability": "nonpayable",
      "type": "function"
    },
    {
      "inputs": [],
      "name": "usdc",
      "outputs": [
        {
          "internalType": "address",
          "name": "",
          "type": "address"
        }
      ],
      "stateMutability": "view",
      "type": "function"
    }
  ],
  "transactionHash": "0x26830dedfb14939c9330f1e4d2e62aac16d49a5b73e2edf2912b7754692fef71",
  "args": [
    "0x919E5e0C096002cb8a21397D724C4e3EbE77bC15",
    "0xe044919cf58dFb066FC9DE7c69C7db19f336B20c",
    "0xec096ea6eB9aa5ea689b0CF00882366E92377371",
    "0xe485155ce647157624C5E2A41db45A9CC88098c3",
    "0x0e97498F3d91756Ec7F2d244aC97F6Ea9f4eBbC3",
    "0x5Fe380D68fEe022d8acd42dc4D36FbfB249a76d5",
    "0xFF970A61A04b1cA14834A43f5dE4533eBDDB5CC8"
  ],
  "numDeployments": 1,
  "solcInputHash": "ea0002aaa152992350afdce91990bac1",
  "bytecode": "0x608060405260016008553480156200001657600080fd5b5060405162002f8b38038062002f8b83398181016040528101906200003c919062000374565b8686868686868662000063620000576200023e60201b60201c565b6200024660201b60201c565b86600160006101000a81548173ffffffffffffffffffffffffffffffffffffffff021916908373ffffffffffffffffffffffffffffffffffffffff16021790555085600260006101000a81548173ffffffffffffffffffffffffffffffffffffffff021916908373ffffffffffffffffffffffffffffffffffffffff16021790555084600360006101000a81548173ffffffffffffffffffffffffffffffffffffffff021916908373ffffffffffffffffffffffffffffffffffffffff16021790555083600460006101000a81548173ffffffffffffffffffffffffffffffffffffffff021916908373ffffffffffffffffffffffffffffffffffffffff16021790555082600560006101000a81548173ffffffffffffffffffffffffffffffffffffffff021916908373ffffffffffffffffffffffffffffffffffffffff16021790555081600660006101000a81548173ffffffffffffffffffffffffffffffffffffffff021916908373ffffffffffffffffffffffffffffffffffffffff16021790555080600760006101000a81548173ffffffffffffffffffffffffffffffffffffffff021916908373ffffffffffffffffffffffffffffffffffffffff160217905550505050505050505050505050505062000427565b600033905090565b60008060009054906101000a900473ffffffffffffffffffffffffffffffffffffffff169050816000806101000a81548173ffffffffffffffffffffffffffffffffffffffff021916908373ffffffffffffffffffffffffffffffffffffffff1602179055508173ffffffffffffffffffffffffffffffffffffffff168173ffffffffffffffffffffffffffffffffffffffff167f8be0079c531659141344cd1fd0a4f28419497f9722a3daafe3b4186f6b6457e060405160405180910390a35050565b600080fd5b600073ffffffffffffffffffffffffffffffffffffffff82169050919050565b60006200033c826200030f565b9050919050565b6200034e816200032f565b81146200035a57600080fd5b50565b6000815190506200036e8162000343565b92915050565b600080600080600080600060e0888a0312156200039657620003956200030a565b5b6000620003a68a828b016200035d565b9750506020620003b98a828b016200035d565b9650506040620003cc8a828b016200035d565b9550506060620003df8a828b016200035d565b9450506080620003f28a828b016200035d565b93505060a0620004058a828b016200035d565b92505060c0620004188a828b016200035d565b91505092959891949750929550565b612b5480620004376000396000f3fe608060405234801561001057600080fd5b50600436106101165760003560e01c8063ad4bb908116100a2578063f2b60d2a11610071578063f2b60d2a1461029f578063f2fde38b146102d0578063fa3f11b5146102ec578063fdbda7591461031c578063ff5406691461034c57610116565b8063ad4bb9081461023b578063ae96f72714610245578063d66aafa614610263578063d7819cd11461028157610116565b8063715018a6116100e9578063715018a6146101a557806389f94c29146101af5780638da5cb5b146101e157806394cefc48146101ff578063ac3ec7481461021d57610116565b806305395c201461011b578063150b7a02146101395780633e413bee1461016957806362d23bf114610187575b600080fd5b610123610368565b6040516101309190611a3b565b60405180910390f35b610153600480360381019061014e9190611b31565b61038e565b6040516101609190611bf4565b60405180910390f35b6101716103bc565b60405161017e9190611a3b565b60405180910390f35b61018f6103e2565b60405161019c9190611a3b565b60405180910390f35b6101ad610408565b005b6101c960048036038101906101c49190611d50565b61041c565b6040516101d893929190611ef4565b60405180910390f35b6101e961044f565b6040516101f69190611a3b565b60405180910390f35b610207610478565b6040516102149190611a3b565b60405180910390f35b61022561049e565b6040516102329190611a3b565b60405180910390f35b6102436104c4565b005b61024d610b74565b60405161025a9190611a3b565b60405180910390f35b61026b610b9a565b6040516102789190611a3b565b60405180910390f35b610289610bc0565b6040516102969190611f2d565b60405180910390f35b6102b960048036038101906102b49190611d50565b610bc6565b6040516102c7929190611f48565b60405180910390f35b6102ea60048036038101906102e59190611f71565b610bea565b005b610306600480360381019061030191906120a8565b610c6e565b6040516103139190612185565b60405180910390f35b610336600480360381019061033191906121a7565b610c9d565b6040516103439190612185565b60405180910390f35b610366600480360381019061036191906123b0565b610cc9565b005b600660009054906101000a900473ffffffffffffffffffffffffffffffffffffffff1681565b60007f150b7a023d4804d13e8c85fb27262cb750cf6ba9f9dd3bb30d90f482ceeb4b1f905095945050505050565b600760009054906101000a900473ffffffffffffffffffffffffffffffffffffffff1681565b600160009054906101000a900473ffffffffffffffffffffffffffffffffffffffff1681565b610410610ee0565b61041a6000610f5e565b565b6000610426611986565b60008380602001905181019061043c9190612598565b8093508194508295505050509193909250565b60008060009054906101000a900473ffffffffffffffffffffffffffffffffffffffff16905090565b600260009054906101000a900473ffffffffffffffffffffffffffffffffffffffff1681565b600460009054906101000a900473ffffffffffffffffffffffffffffffffffffffff1681565b600160009054906101000a900473ffffffffffffffffffffffffffffffffffffffff1673ffffffffffffffffffffffffffffffffffffffff1663fdf262b76040518163ffffffff1660e01b815260040160206040518083038186803b15801561052c57600080fd5b505afa158015610540573d6000803e3d6000fd5b505050506040513d601f19601f82011682018060405250810190610564919061262b565b73ffffffffffffffffffffffffffffffffffffffff1663095ea7b3600160009054906101000a900473ffffffffffffffffffffffffffffffffffffffff167fffffffffffffffffffffffffffffffffffffffffffffffffffffffffffffffff6040518363ffffffff1660e01b81526004016105e0929190611f48565b602060405180830381600087803b1580156105fa57600080fd5b505af115801561060e573d6000803e3d6000fd5b505050506040513d601f19601f820116820180604052508101906106329190612690565b50600160009054906101000a900473ffffffffffffffffffffffffffffffffffffffff1673ffffffffffffffffffffffffffffffffffffffff1663cdf456e16040518163ffffffff1660e01b815260040160206040518083038186803b15801561069b57600080fd5b505afa1580156106af573d6000803e3d6000fd5b505050506040513d601f19601f820116820180604052508101906106d3919061262b565b73ffffffffffffffffffffffffffffffffffffffff1663095ea7b3600160009054906101000a900473ffffffffffffffffffffffffffffffffffffffff167fffffffffffffffffffffffffffffffffffffffffffffffffffffffffffffffff6040518363ffffffff1660e01b815260040161074f929190611f48565b602060405180830381600087803b15801561076957600080fd5b505af115801561077d573d6000803e3d6000fd5b505050506040513d601f19601f820116820180604052508101906107a19190612690565b50600260009054906101000a900473ffffffffffffffffffffffffffffffffffffffff1673ffffffffffffffffffffffffffffffffffffffff1663fdf262b76040518163ffffffff1660e01b815260040160206040518083038186803b15801561080a57600080fd5b505afa15801561081e573d6000803e3d6000fd5b505050506040513d601f19601f82011682018060405250810190610842919061262b565b73ffffffffffffffffffffffffffffffffffffffff1663095ea7b3600260009054906101000a900473ffffffffffffffffffffffffffffffffffffffff167fffffffffffffffffffffffffffffffffffffffffffffffffffffffffffffffff6040518363ffffffff1660e01b81526004016108be929190611f48565b602060405180830381600087803b1580156108d857600080fd5b505af11580156108ec573d6000803e3d6000fd5b505050506040513d601f19601f820116820180604052508101906109109190612690565b50600260009054906101000a900473ffffffffffffffffffffffffffffffffffffffff1673ffffffffffffffffffffffffffffffffffffffff1663cdf456e16040518163ffffffff1660e01b815260040160206040518083038186803b15801561097957600080fd5b505afa15801561098d573d6000803e3d6000fd5b505050506040513d601f19601f820116820180604052508101906109b1919061262b565b73ffffffffffffffffffffffffffffffffffffffff1663095ea7b3600260009054906101000a900473ffffffffffffffffffffffffffffffffffffffff167fffffffffffffffffffffffffffffffffffffffffffffffffffffffffffffffff6040518363ffffffff1660e01b8152600401610a2d929190611f48565b602060405180830381600087803b158015610a4757600080fd5b505af1158015610a5b573d6000803e3d6000fd5b505050506040513d601f19601f82011682018060405250810190610a7f9190612690565b50600760009054906101000a900473ffffffffffffffffffffffffffffffffffffffff1673ffffffffffffffffffffffffffffffffffffffff1663095ea7b3600360009054906101000a900473ffffffffffffffffffffffffffffffffffffffff167fffffffffffffffffffffffffffffffffffffffffffffffffffffffffffffffff6040518363ffffffff1660e01b8152600401610b1f929190611f48565b602060405180830381600087803b158015610b3957600080fd5b505af1158015610b4d573d6000803e3d6000fd5b505050506040513d601f19601f82011682018060405250810190610b719190612690565b50565b600560009054906101000a900473ffffffffffffffffffffffffffffffffffffffff1681565b600360009054906101000a900473ffffffffffffffffffffffffffffffffffffffff1681565b60085481565b60008082806020019051810190610bdd91906126bd565b8092508193505050915091565b610bf2610ee0565b600073ffffffffffffffffffffffffffffffffffffffff168173ffffffffffffffffffffffffffffffffffffffff161415610c62576040517f08c379a0000000000000000000000000000000000000000000000000000000008152600401610c5990612780565b60405180910390fd5b610c6b81610f5e565b50565b6060838383604051602001610c8593929190611ef4565b60405160208183030381529060405290509392505050565b60608282604051602001610cb2929190611f48565b604051602081830303815290604052905092915050565b8151835114610d0d576040517f08c379a0000000000000000000000000000000000000000000000000000000008152600401610d04906127ec565b60405180910390fd5b60005b8351811015610e705760006002811115610d2d57610d2c611da8565b5b848281518110610d4057610d3f61280c565b5b60200260200101516002811115610d5a57610d59611da8565b5b1480610da4575060016002811115610d7557610d74611da8565b5b848281518110610d8857610d8761280c565b5b60200260200101516002811115610da257610da1611da8565b5b145b15610def57610dea848281518110610dbf57610dbe61280c565b5b6020026020010151848381518110610dda57610dd961280c565b5b6020026020010151600854611022565b610e5d565b600280811115610e0257610e01611da8565b5b848281518110610e1557610e1461280c565b5b60200260200101516002811115610e2f57610e2e611da8565b5b1415610e5c57610e5b838281518110610e4b57610e4a61280c565b5b602002602001015160085461180e565b5b5b8080610e689061286a565b915050610d10565b503373ffffffffffffffffffffffffffffffffffffffff167fdf35236315d79f749febbbe30af46d136cadd5dc4f8006c5668c7bd2fac5da7260085483604051610ebb9291906128b3565b60405180910390a260086000815480929190610ed69061286a565b9190505550505050565b610ee861197e565b73ffffffffffffffffffffffffffffffffffffffff16610f0661044f565b73ffffffffffffffffffffffffffffffffffffffff1614610f5c576040517f08c379a0000000000000000000000000000000000000000000000000000000008152600401610f5390612928565b60405180910390fd5b565b60008060009054906101000a900473ffffffffffffffffffffffffffffffffffffffff169050816000806101000a81548173ffffffffffffffffffffffffffffffffffffffff021916908373ffffffffffffffffffffffffffffffffffffffff1602179055508173ffffffffffffffffffffffffffffffffffffffff168173ffffffffffffffffffffffffffffffffffffffff167f8be0079c531659141344cd1fd0a4f28419497f9722a3daafe3b4186f6b6457e060405160405180910390a35050565b60008060006110308561041c565b9250925092506000600160009054906101000a900473ffffffffffffffffffffffffffffffffffffffff1690506000600460009054906101000a900473ffffffffffffffffffffffffffffffffffffffff1690506001600281111561109857611097611da8565b5b8860028111156110ab576110aa611da8565b5b14156110fc57600260009054906101000a900473ffffffffffffffffffffffffffffffffffffffff169150600560009054906101000a900473ffffffffffffffffffffffffffffffffffffffff1690505b60006002600481111561111257611111611da8565b5b8560600151600481111561112957611128611da8565b5b146111b1578273ffffffffffffffffffffffffffffffffffffffff1663fdf262b76040518163ffffffff1660e01b815260040160206040518083038186803b15801561117457600080fd5b505afa158015611188573d6000803e3d6000fd5b505050506040513d601f19601f820116820180604052508101906111ac919061262b565b611230565b8273ffffffffffffffffffffffffffffffffffffffff1663cdf456e16040518163ffffffff1660e01b815260040160206040518083038186803b1580156111f757600080fd5b505afa15801561120b573d6000803e3d6000fd5b505050506040513d601f19601f8201168201806040525081019061122f919061262b565b5b90508273ffffffffffffffffffffffffffffffffffffffff1663fdf262b76040518163ffffffff1660e01b815260040160206040518083038186803b15801561127857600080fd5b505afa15801561128c573d6000803e3d6000fd5b505050506040513d601f19601f820116820180604052508101906112b0919061262b565b73ffffffffffffffffffffffffffffffffffffffff166323b872dd3330876040518463ffffffff1660e01b81526004016112ec93929190612948565b602060405180830381600087803b15801561130657600080fd5b505af115801561131a573d6000803e3d6000fd5b505050506040513d601f19601f8201168201806040525081019061133e9190612690565b508173ffffffffffffffffffffffffffffffffffffffff166323b872dd873088602001516040518463ffffffff1660e01b815260040161138093929190612948565b600060405180830381600087803b15801561139a57600080fd5b505af11580156113ae573d6000803e3d6000fd5b505050508273ffffffffffffffffffffffffffffffffffffffff16633c8e7624866040518263ffffffff1660e01b81526004016113eb919061297f565b606060405180830381600087803b15801561140557600080fd5b505af1158015611419573d6000803e3d6000fd5b505050506040513d601f19601f8201168201806040525081019061143d91906129ff565b508073ffffffffffffffffffffffffffffffffffffffff1663a9059cbb878373ffffffffffffffffffffffffffffffffffffffff166370a08231306040518263ffffffff1660e01b81526004016114949190611a3b565b60206040518083038186803b1580156114ac57600080fd5b505afa1580156114c0573d6000803e3d6000fd5b505050506040513d601f19601f820116820180604052508101906114e49190612a2c565b6040518363ffffffff1660e01b8152600401611501929190611f48565b602060405180830381600087803b15801561151b57600080fd5b505af115801561152f573d6000803e3d6000fd5b505050506040513d601f19601f820116820180604052508101906115539190612690565b506002600481111561156857611567611da8565b5b8560600151600481111561157f5761157e611da8565b5b1415611796578273ffffffffffffffffffffffffffffffffffffffff1663fdf262b76040518163ffffffff1660e01b815260040160206040518083038186803b1580156115cb57600080fd5b505afa1580156115df573d6000803e3d6000fd5b505050506040513d601f19601f82011682018060405250810190611603919061262b565b73ffffffffffffffffffffffffffffffffffffffff1663a9059cbb878573ffffffffffffffffffffffffffffffffffffffff1663fdf262b76040518163ffffffff1660e01b815260040160206040518083038186803b15801561166557600080fd5b505afa158015611679573d6000803e3d6000fd5b505050506040513d601f19601f8201168201806040525081019061169d919061262b565b73ffffffffffffffffffffffffffffffffffffffff166370a08231306040518263ffffffff1660e01b81526004016116d59190611a3b565b60206040518083038186803b1580156116ed57600080fd5b505afa158015611701573d6000803e3d6000fd5b505050506040513d601f19601f820116820180604052508101906117259190612a2c565b6040518363ffffffff1660e01b8152600401611742929190611f48565b602060405180830381600087803b15801561175c57600080fd5b505af1158015611770573d6000803e3d6000fd5b505050506040513d601f19601f820116820180604052508101906117949190612690565b505b867fb91c8e63d82620c620ac9d4be57bdf978a47a8f9cfe931d9710a2360161dced386600001518760200151886040015189606001518a608001518b60a001518c60c001518d60e001518e61010001516040516117fb99989796959493929190612a68565b60405180910390a2505050505050505050565b60008061181a84610bc6565b91509150600660009054906101000a900473ffffffffffffffffffffffffffffffffffffffff1673ffffffffffffffffffffffffffffffffffffffff166323b872dd8330846040518463ffffffff1660e01b815260040161187d93929190612948565b600060405180830381600087803b15801561189757600080fd5b505af11580156118ab573d6000803e3d6000fd5b50505050600360009054906101000a900473ffffffffffffffffffffffffffffffffffffffff1673ffffffffffffffffffffffffffffffffffffffff1663914fb51882846040518363ffffffff1660e01b815260040161190c929190612af5565b600060405180830381600087803b15801561192657600080fd5b505af115801561193a573d6000803e3d6000fd5b50505050827f6f67fc9eb46d331871756199acef8a5362f412ac1a2487f7710330447df9550e8284604051611970929190612af5565b60405180910390a250505050565b600033905090565b604051806101200160405280600081526020016000815260200160008152602001600060048111156119bb576119ba611da8565b5b815260200160008152602001600081526020016000815260200160008152602001600073ffffffffffffffffffffffffffffffffffffffff1681525090565b600073ffffffffffffffffffffffffffffffffffffffff82169050919050565b6000611a25826119fa565b9050919050565b611a3581611a1a565b82525050565b6000602082019050611a506000830184611a2c565b92915050565b6000604051905090565b600080fd5b600080fd5b611a7381611a1a565b8114611a7e57600080fd5b50565b600081359050611a9081611a6a565b92915050565b6000819050919050565b611aa981611a96565b8114611ab457600080fd5b50565b600081359050611ac681611aa0565b92915050565b600080fd5b600080fd5b600080fd5b60008083601f840112611af157611af0611acc565b5b8235905067ffffffffffffffff811115611b0e57611b0d611ad1565b5b602083019150836001820283011115611b2a57611b29611ad6565b5b9250929050565b600080600080600060808688031215611b4d57611b4c611a60565b5b6000611b5b88828901611a81565b9550506020611b6c88828901611a81565b9450506040611b7d88828901611ab7565b935050606086013567ffffffffffffffff811115611b9e57611b9d611a65565b5b611baa88828901611adb565b92509250509295509295909350565b60007fffffffff0000000000000000000000000000000000000000000000000000000082169050919050565b611bee81611bb9565b82525050565b6000602082019050611c096000830184611be5565b92915050565b600080fd5b6000601f19601f8301169050919050565b7f4e487b7100000000000000000000000000000000000000000000000000000000600052604160045260246000fd5b611c5d82611c14565b810181811067ffffffffffffffff82111715611c7c57611c7b611c25565b5b80604052505050565b6000611c8f611a56565b9050611c9b8282611c54565b919050565b600067ffffffffffffffff821115611cbb57611cba611c25565b5b611cc482611c14565b9050602081019050919050565b82818337600083830152505050565b6000611cf3611cee84611ca0565b611c85565b905082815260208101848484011115611d0f57611d0e611c0f565b5b611d1a848285611cd1565b509392505050565b600082601f830112611d3757611d36611acc565b5b8135611d47848260208601611ce0565b91505092915050565b600060208284031215611d6657611d65611a60565b5b600082013567ffffffffffffffff811115611d8457611d83611a65565b5b611d9084828501611d22565b91505092915050565b611da281611a96565b82525050565b7f4e487b7100000000000000000000000000000000000000000000000000000000600052602160045260246000fd5b60058110611de857611de7611da8565b5b50565b6000819050611df982611dd7565b919050565b6000611e0982611deb565b9050919050565b611e1981611dfe565b82525050565b611e2881611a1a565b82525050565b61012082016000820151611e456000850182611d99565b506020820151611e586020850182611d99565b506040820151611e6b6040850182611d99565b506060820151611e7e6060850182611e10565b506080820151611e916080850182611d99565b5060a0820151611ea460a0850182611d99565b5060c0820151611eb760c0850182611d99565b5060e0820151611eca60e0850182611d99565b50610100820151611edf610100850182611e1f565b50505050565b611eee81611a96565b82525050565b600061016082019050611f0a6000830186611a2c565b611f176020830185611e2e565b611f25610140830184611ee5565b949350505050565b6000602082019050611f426000830184611ee5565b92915050565b6000604082019050611f5d6000830185611a2c565b611f6a6020830184611ee5565b9392505050565b600060208284031215611f8757611f86611a60565b5b6000611f9584828501611a81565b91505092915050565b600080fd5b60058110611fb057600080fd5b50565b600081359050611fc281611fa3565b92915050565b60006101208284031215611fdf57611fde611f9e565b5b611fea610120611c85565b90506000611ffa84828501611ab7565b600083015250602061200e84828501611ab7565b602083015250604061202284828501611ab7565b604083015250606061203684828501611fb3565b606083015250608061204a84828501611ab7565b60808301525060a061205e84828501611ab7565b60a08301525060c061207284828501611ab7565b60c08301525060e061208684828501611ab7565b60e08301525061010061209b84828501611a81565b6101008301525092915050565b600080600061016084860312156120c2576120c1611a60565b5b60006120d086828701611a81565b93505060206120e186828701611fc8565b9250506101406120f386828701611ab7565b9150509250925092565b600081519050919050565b600082825260208201905092915050565b60005b8381101561213757808201518184015260208101905061211c565b83811115612146576000848401525b50505050565b6000612157826120fd565b6121618185612108565b9350612171818560208601612119565b61217a81611c14565b840191505092915050565b6000602082019050818103600083015261219f818461214c565b905092915050565b600080604083850312156121be576121bd611a60565b5b60006121cc85828601611a81565b92505060206121dd85828601611ab7565b9150509250929050565b600067ffffffffffffffff82111561220257612201611c25565b5b602082029050602081019050919050565b6003811061222057600080fd5b50565b60008135905061223281612213565b92915050565b600061224b612246846121e7565b611c85565b9050808382526020820190506020840283018581111561226e5761226d611ad6565b5b835b8181101561229757806122838882612223565b845260208401935050602081019050612270565b5050509392505050565b600082601f8301126122b6576122b5611acc565b5b81356122c6848260208601612238565b91505092915050565b600067ffffffffffffffff8211156122ea576122e9611c25565b5b602082029050602081019050919050565b600061230e612309846122cf565b611c85565b9050808382526020820190506020840283018581111561233157612330611ad6565b5b835b8181101561237857803567ffffffffffffffff81111561235657612355611acc565b5b8086016123638982611d22565b85526020850194505050602081019050612333565b5050509392505050565b600082601f83011261239757612396611acc565b5b81356123a78482602086016122fb565b91505092915050565b6000806000606084860312156123c9576123c8611a60565b5b600084013567ffffffffffffffff8111156123e7576123e6611a65565b5b6123f3868287016122a1565b935050602084013567ffffffffffffffff81111561241457612413611a65565b5b61242086828701612382565b925050604061243186828701611ab7565b9150509250925092565b6000612446826119fa565b9050919050565b6124568161243b565b811461246157600080fd5b50565b6000815190506124738161244d565b92915050565b60008151905061248881611aa0565b92915050565b60008151905061249d81611fa3565b92915050565b6000815190506124b281611a6a565b92915050565b600061012082840312156124cf576124ce611f9e565b5b6124da610120611c85565b905060006124ea84828501612479565b60008301525060206124fe84828501612479565b602083015250604061251284828501612479565b60408301525060606125268482850161248e565b606083015250608061253a84828501612479565b60808301525060a061254e84828501612479565b60a08301525060c061256284828501612479565b60c08301525060e061257684828501612479565b60e08301525061010061258b848285016124a3565b6101008301525092915050565b600080600061016084860312156125b2576125b1611a60565b5b60006125c086828701612464565b93505060206125d1868287016124b8565b9250506101406125e386828701612479565b9150509250925092565b60006125f882611a1a565b9050919050565b612608816125ed565b811461261357600080fd5b50565b600081519050612625816125ff565b92915050565b60006020828403121561264157612640611a60565b5b600061264f84828501612616565b91505092915050565b60008115159050919050565b61266d81612658565b811461267857600080fd5b50565b60008151905061268a81612664565b92915050565b6000602082840312156126a6576126a5611a60565b5b60006126b48482850161267b565b91505092915050565b600080604083850312156126d4576126d3611a60565b5b60006126e285828601612464565b92505060206126f385828601612479565b9150509250929050565b600082825260208201905092915050565b7f4f776e61626c653a206e6577206f776e657220697320746865207a65726f206160008201527f6464726573730000000000000000000000000000000000000000000000000000602082015250565b600061276a6026836126fd565b91506127758261270e565b604082019050919050565b600060208201905081810360008301526127998161275d565b9050919050565b7f617272617973206e6f7420657175616c00000000000000000000000000000000600082015250565b60006127d66010836126fd565b91506127e1826127a0565b602082019050919050565b60006020820190508181036000830152612805816127c9565b9050919050565b7f4e487b7100000000000000000000000000000000000000000000000000000000600052603260045260246000fd5b7f4e487b7100000000000000000000000000000000000000000000000000000000600052601160045260246000fd5b600061287582611a96565b91507fffffffffffffffffffffffffffffffffffffffffffffffffffffffffffffffff8214156128a8576128a761283b565b5b600182019050919050565b60006040820190506128c86000830185611ee5565b6128d56020830184611ee5565b9392505050565b7f4f776e61626c653a2063616c6c6572206973206e6f7420746865206f776e6572600082015250565b60006129126020836126fd565b915061291d826128dc565b602082019050919050565b6000602082019050818103600083015261294181612905565b9050919050565b600060608201905061295d6000830186611a2c565b61296a6020830185611a2c565b6129776040830184611ee5565b949350505050565b6000610120820190506129956000830184611e2e565b92915050565b6000606082840312156129b1576129b0611f9e565b5b6129bb6060611c85565b905060006129cb84828501612479565b60008301525060206129df84828501612479565b60208301525060406129f384828501612479565b60408301525092915050565b600060608284031215612a1557612a14611a60565b5b6000612a238482850161299b565b91505092915050565b600060208284031215612a4257612a41611a60565b5b6000612a5084828501612479565b91505092915050565b612a6281611dfe565b82525050565b600061012082019050612a7e600083018c611ee5565b612a8b602083018b611ee5565b612a98604083018a611ee5565b612aa56060830189612a59565b612ab26080830188611ee5565b612abf60a0830187611ee5565b612acc60c0830186611ee5565b612ad960e0830185611ee5565b612ae7610100830184611a2c565b9a9950505050505050505050565b6000604082019050612b0a6000830185611ee5565b612b176020830184611a2c565b939250505056fea2646970667358221220ac77ff82960bc4479b18356f6dc864ddfcf9b476a53cb18d42767dabed1b8cc164736f6c63430008090033",
  "devdoc": {
    "kind": "dev",
    "methods": {
      "owner()": {
        "details": "Returns the address of the current owner."
      },
      "renounceOwnership()": {
        "details": "Leaves the contract without owner. It will not be possible to call `onlyOwner` functions anymore. Can only be called by the current owner. NOTE: Renouncing ownership will leave the contract without an owner, thereby removing any functionality that is only available to the owner."
      },
      "transferOwnership(address)": {
        "details": "Transfers ownership of the contract to a new account (`newOwner`). Can only be called by the current owner."
      }
    },
    "version": 1
  },
  "userdoc": {
    "kind": "user",
    "methods": {},
    "version": 1
  },
  "storageLayout": {
    "storage": [
      {
        "astId": 7,
        "contract": "contracts/OptionBuilderClose.sol:OptionBuilderClose",
        "label": "_owner",
        "offset": 0,
        "slot": "0",
        "type": "t_address"
      },
      {
        "astId": 1069,
        "contract": "contracts/OptionBuilderClose.sol:OptionBuilderClose",
        "label": "lyra_eth",
        "offset": 0,
        "slot": "1",
        "type": "t_address"
      },
      {
        "astId": 1071,
        "contract": "contracts/OptionBuilderClose.sol:OptionBuilderClose",
        "label": "lyra_btc",
        "offset": 0,
        "slot": "2",
        "type": "t_address"
      },
      {
        "astId": 1073,
        "contract": "contracts/OptionBuilderClose.sol:OptionBuilderClose",
        "label": "operationalTreasury",
        "offset": 0,
        "slot": "3",
        "type": "t_address"
      },
      {
        "astId": 1075,
        "contract": "contracts/OptionBuilderClose.sol:OptionBuilderClose",
        "label": "lyra_ethErc721",
        "offset": 0,
        "slot": "4",
        "type": "t_address"
      },
      {
        "astId": 1077,
        "contract": "contracts/OptionBuilderClose.sol:OptionBuilderClose",
        "label": "lyra_btcErc721",
        "offset": 0,
        "slot": "5",
        "type": "t_address"
      },
      {
        "astId": 1079,
        "contract": "contracts/OptionBuilderClose.sol:OptionBuilderClose",
        "label": "hegicErc721",
        "offset": 0,
        "slot": "6",
        "type": "t_address"
      },
      {
        "astId": 1081,
        "contract": "contracts/OptionBuilderClose.sol:OptionBuilderClose",
        "label": "usdc",
        "offset": 0,
        "slot": "7",
        "type": "t_address"
      },
      {
        "astId": 1084,
        "contract": "contracts/OptionBuilderClose.sol:OptionBuilderClose",
        "label": "nextBuildID",
        "offset": 0,
        "slot": "8",
        "type": "t_uint256"
      }
    ],
    "types": {
      "t_address": {
        "encoding": "inplace",
        "label": "address",
        "numberOfBytes": "20"
      },
      "t_uint256": {
        "encoding": "inplace",
        "label": "uint256",
        "numberOfBytes": "32"
      }
    }
  }
}